{
  "contractName": "Voting",
  "abi": [
    {
      "constant": true,
      "inputs": [
        {
          "internalType": "uint256",
          "name": "",
          "type": "uint256"
        }
      ],
      "name": "elections",
      "outputs": [
        {
          "internalType": "bool",
          "name": "open",
          "type": "bool"
        },
        {
          "internalType": "string",
          "name": "title",
          "type": "string"
        }
      ],
      "payable": false,
      "stateMutability": "view",
      "type": "function"
    },
    {
      "constant": false,
      "inputs": [
        {
          "internalType": "address[]",
          "name": "voterPool",
          "type": "address[]"
        },
        {
          "internalType": "bytes32[]",
          "name": "candidates",
          "type": "bytes32[]"
        },
        {
          "internalType": "bool",
          "name": "open",
          "type": "bool"
        },
        {
          "internalType": "string",
          "name": "title",
          "type": "string"
        }
      ],
      "name": "createElection",
      "outputs": [],
      "payable": false,
      "stateMutability": "nonpayable",
      "type": "function"
    },
    {
      "constant": false,
      "inputs": [
        {
          "internalType": "uint256",
          "name": "i",
          "type": "uint256"
        }
      ],
      "name": "registerToVote",
      "outputs": [],
      "payable": false,
      "stateMutability": "nonpayable",
      "type": "function"
    },
    {
      "constant": false,
      "inputs": [
        {
          "internalType": "uint256",
          "name": "i",
          "type": "uint256"
        },
        {
          "internalType": "bytes32",
          "name": "candidate",
          "type": "bytes32"
        }
      ],
      "name": "vote",
      "outputs": [],
      "payable": false,
      "stateMutability": "nonpayable",
      "type": "function"
    },
    {
      "constant": true,
      "inputs": [
        {
          "internalType": "uint256",
          "name": "i",
          "type": "uint256"
        }
      ],
      "name": "getElection",
      "outputs": [
        {
          "internalType": "bytes32[]",
          "name": "",
          "type": "bytes32[]"
        },
        {
          "internalType": "bool",
          "name": "",
          "type": "bool"
        },
        {
          "internalType": "string",
          "name": "",
          "type": "string"
        }
      ],
      "payable": false,
      "stateMutability": "view",
      "type": "function"
    },
    {
      "constant": true,
      "inputs": [
        {
          "internalType": "uint256",
          "name": "i",
          "type": "uint256"
        },
        {
          "internalType": "address",
          "name": "voter",
          "type": "address"
        }
      ],
      "name": "isEligibleToVote",
      "outputs": [
        {
          "internalType": "bool",
          "name": "",
          "type": "bool"
        }
      ],
      "payable": false,
      "stateMutability": "view",
      "type": "function"
    },
    {
      "constant": true,
      "inputs": [
        {
          "internalType": "uint256",
          "name": "i",
          "type": "uint256"
        },
        {
          "internalType": "address",
          "name": "voter",
          "type": "address"
        }
      ],
      "name": "isRegisteredToVote",
      "outputs": [
        {
          "internalType": "bool",
          "name": "",
          "type": "bool"
        }
      ],
      "payable": false,
      "stateMutability": "view",
      "type": "function"
    },
    {
      "constant": true,
      "inputs": [
        {
          "internalType": "uint256",
          "name": "i",
          "type": "uint256"
        },
        {
          "internalType": "address",
          "name": "voter",
          "type": "address"
        }
      ],
      "name": "voted",
      "outputs": [
        {
          "internalType": "bool",
          "name": "",
          "type": "bool"
        }
      ],
      "payable": false,
      "stateMutability": "view",
      "type": "function"
    },
    {
      "constant": true,
      "inputs": [
        {
          "internalType": "uint256",
          "name": "i",
          "type": "uint256"
        },
        {
          "internalType": "bytes32",
          "name": "candidate",
          "type": "bytes32"
        }
      ],
      "name": "getNumberOfVotes",
      "outputs": [
        {
          "internalType": "uint256",
          "name": "",
          "type": "uint256"
        }
      ],
      "payable": false,
      "stateMutability": "view",
      "type": "function"
    },
    {
      "constant": true,
      "inputs": [],
      "name": "getNumberOfElections",
      "outputs": [
        {
          "internalType": "uint256",
          "name": "",
          "type": "uint256"
        }
      ],
      "payable": false,
      "stateMutability": "view",
      "type": "function"
    }
  ],
  "bytecode": "0x608060405234801561001057600080fd5b50611300806100206000396000f3fe608060405234801561001057600080fd5b506004361061009e5760003560e01c806368bb8bb61161006657806368bb8bb61461029b5780639ae17cea146102d35780639d71077714610339578063cdf68a2014610433578063f999dd2b146104515761009e565b8063024c6cf8146100a357806314a25ee9146100ef5780631753148a1461011d5780635277b4ae146101835780635e6fef01146101e9575b600080fd5b6100d9600480360360408110156100b957600080fd5b810190808035906020019092919080359060200190929190505050610640565b6040518082815260200191505060405180910390f35b61011b6004803603602081101561010557600080fd5b8101908080359060200190929190505050610679565b005b6101696004803603604081101561013357600080fd5b8101908080359060200190929190803573ffffffffffffffffffffffffffffffffffffffff16906020019092919050505061091a565b604051808215151515815260200191505060405180910390f35b6101cf6004803603604081101561019957600080fd5b8101908080359060200190929190803573ffffffffffffffffffffffffffffffffffffffff169060200190929190505050610983565b604051808215151515815260200191505060405180910390f35b610215600480360360208110156101ff57600080fd5b81019080803590602001909291905050506109ec565b604051808315151515815260200180602001828103825283818151815260200191508051906020019080838360005b8381101561025f578082015181840152602081019050610244565b50505050905090810190601f16801561028c5780820380516001836020036101000a031916815260200191505b50935050505060405180910390f35b6102d1600480360360408110156102b157600080fd5b810190808035906020019092919080359060200190929190505050610ac2565b005b61031f600480360360408110156102e957600080fd5b8101908080359060200190929190803573ffffffffffffffffffffffffffffffffffffffff169060200190929190505050610d50565b604051808215151515815260200191505060405180910390f35b6103656004803603602081101561034f57600080fd5b8101908080359060200190929190505050610df5565b60405180806020018415151515815260200180602001838103835286818151815260200191508051906020019060200280838360005b838110156103b657808201518184015260208101905061039b565b50505050905001838103825284818151815260200191508051906020019080838360005b838110156103f55780820151818401526020810190506103da565b50505050905090810190601f1680156104225780820380516001836020036101000a031916815260200191505b509550505050505060405180910390f35b61043b61104f565b6040518082815260200191505060405180910390f35b61063e6004803603608081101561046757600080fd5b810190808035906020019064010000000081111561048457600080fd5b82018360208201111561049657600080fd5b803590602001918460208302840111640100000000831117156104b857600080fd5b919080806020026020016040519081016040528093929190818152602001838360200280828437600081840152601f19601f8201169050808301925050505050505091929192908035906020019064010000000081111561051857600080fd5b82018360208201111561052a57600080fd5b8035906020019184602083028401116401000000008311171561054c57600080fd5b919080806020026020016040519081016040528093929190818152602001838360200280828437600081840152601f19601f820116905080830192505050505050509192919290803515159060200190929190803590602001906401000000008111156105b857600080fd5b8201836020820111156105ca57600080fd5b803590602001918460018302840111640100000000831117156105ec57600080fd5b91908080601f016020809104026020016040519081016040528093929190818152602001838380828437600081840152601f19601f82011690508083019250505050505050919291929050505061105b565b005b600080838154811061064e57fe5b9060005260206000209060060201600201600083815260200190815260200160002054905092915050565b60008110156106f0576040517f08c379a00000000000000000000000000000000000000000000000000000000081526004018080602001828103825260168152602001807f456c656374696f6e206e6f7420617661696c61626c650000000000000000000081525060200191505060405180910390fd5b600080549050811061076a576040517f08c379a00000000000000000000000000000000000000000000000000000000081526004018080602001828103825260168152602001807f456c656374696f6e206e6f7420617661696c61626c650000000000000000000081525060200191505060405180910390fd5b6107748133610d50565b6107e6576040517f08c379a000000000000000000000000000000000000000000000000000000000815260040180806020018281038252601b8152602001807f596f752063616e6e6f7420726567697374657220746f20766f7465000000000081525060200191505060405180910390fd5b60008082815481106107f457fe5b906000526020600020906006020160010160003373ffffffffffffffffffffffffffffffffffffffff1673ffffffffffffffffffffffffffffffffffffffff16815260200190815260200160002054146108b6576040517f08c379a000000000000000000000000000000000000000000000000000000000815260040180806020018281038252601e8152602001807f596f7520616c7265616479207265676973746572656420746f20766f7465000081525060200191505060405180910390fd5b6001600082815481106108c557fe5b906000526020600020906006020160010160003373ffffffffffffffffffffffffffffffffffffffff1673ffffffffffffffffffffffffffffffffffffffff1681526020019081526020016000208190555050565b600060016000848154811061092b57fe5b906000526020600020906006020160010160008473ffffffffffffffffffffffffffffffffffffffff1673ffffffffffffffffffffffffffffffffffffffff1681526020019081526020016000205414905092915050565b600060026000848154811061099457fe5b906000526020600020906006020160010160008473ffffffffffffffffffffffffffffffffffffffff1673ffffffffffffffffffffffffffffffffffffffff1681526020019081526020016000205414905092915050565b600081815481106109f957fe5b90600052602060002090600602016000915090508060040160009054906101000a900460ff1690806005018054600181600116156101000203166002900480601f016020809104026020016040519081016040528092919081815260200182805460018160011615610100020316600290048015610ab85780601f10610a8d57610100808354040283529160200191610ab8565b820191906000526020600020905b815481529060010190602001808311610a9b57829003601f168201915b5050505050905082565b6000821015610b39576040517f08c379a00000000000000000000000000000000000000000000000000000000081526004018080602001828103825260168152602001807f456c656374696f6e206e6f7420617661696c61626c650000000000000000000081525060200191505060405180910390fd5b6000805490508210610bb3576040517f08c379a00000000000000000000000000000000000000000000000000000000081526004018080602001828103825260168152602001807f456c656374696f6e206e6f7420617661696c61626c650000000000000000000081525060200191505060405180910390fd5b610bbd8233610983565b15610c30576040517f08c379a00000000000000000000000000000000000000000000000000000000081526004018080602001828103825260168152602001807f596f75206861766520616c726561647920766f7465640000000000000000000081525060200191505060405180910390fd5b610c3a823361091a565b610cac576040517f08c379a000000000000000000000000000000000000000000000000000000000815260040180806020018281038252601e8152602001807f596f7520617265206e6f74207265676973746572656420746f20766f7465000081525060200191505060405180910390fd5b600260008381548110610cbb57fe5b906000526020600020906006020160010160003373ffffffffffffffffffffffffffffffffffffffff1673ffffffffffffffffffffffffffffffffffffffff1681526020019081526020016000208190555060008281548110610d1a57fe5b90600052602060002090600602016002016000828152602001908152602001600020600081548092919060010191905055505050565b6000808381548110610d5e57fe5b906000526020600020906006020160040160009054906101000a900460ff1680610ded575060008381548110610d9057fe5b906000526020600020906006020160000160008373ffffffffffffffffffffffffffffffffffffffff1673ffffffffffffffffffffffffffffffffffffffff16815260200190815260200160002060009054906101000a900460ff165b905092915050565b6060600060606000841015610e72576040517f08c379a00000000000000000000000000000000000000000000000000000000081526004018080602001828103825260168152602001807f456c656374696f6e206e6f7420617661696c61626c650000000000000000000081525060200191505060405180910390fd5b6000805490508410610eec576040517f08c379a00000000000000000000000000000000000000000000000000000000081526004018080602001828103825260168152602001807f456c656374696f6e206e6f7420617661696c61626c650000000000000000000081525060200191505060405180910390fd5b60008481548110610ef957fe5b906000526020600020906006020160030160008581548110610f1757fe5b906000526020600020906006020160040160009054906101000a900460ff1660008681548110610f4357fe5b906000526020600020906006020160050182805480602002602001604051908101604052809291908181526020018280548015610f9f57602002820191906000526020600020905b815481526020019060010190808311610f8b575b50505050509250808054600181600116156101000203166002900480601f01602080910402602001604051908101604052809291908181526020018280546001816001161561010002031660029004801561103b5780601f106110105761010080835404028352916020019161103b565b820191906000526020600020905b81548152906001019060200180831161101e57829003601f168201915b505050505090509250925092509193909250565b60008080549050905090565b600060405180606001604052808581526020018415158152602001838152509080600181540180825580915050906001820390600052602060002090600602016000909192909190915060008201518160030190805190602001906110c19291906111b4565b5060208201518160040160006101000a81548160ff02191690831515021790555060408201518160050190805190602001906110fe929190611201565b5050505060008090505b84518110156111ad57600160006001600080549050038154811061112857fe5b9060005260206000209060060201600001600087848151811061114757fe5b602002602001015173ffffffffffffffffffffffffffffffffffffffff1673ffffffffffffffffffffffffffffffffffffffff16815260200190815260200160002060006101000a81548160ff0219169083151502179055508080600101915050611108565b5050505050565b8280548282559060005260206000209081019282156111f0579160200282015b828111156111ef5782518255916020019190600101906111d4565b5b5090506111fd9190611281565b5090565b828054600181600116156101000203166002900490600052602060002090601f016020900481019282601f1061124257805160ff1916838001178555611270565b82800160010185558215611270579182015b8281111561126f578251825591602001919060010190611254565b5b50905061127d91906112a6565b5090565b6112a391905b8082111561129f576000816000905550600101611287565b5090565b90565b6112c891905b808211156112c45760008160009055506001016112ac565b5090565b9056fea265627a7a723158209045f677bed1ba02bba76617b0704a0dc93f86d5ec642b68b59d2da125e8e58164736f6c63430005100032",
  "source": "// SPDX-License-Identifier: MIT\npragma solidity >=0.4.22 <0.9.0;\n\ncontract Voting {\n\n  struct Election {\n    mapping(address => bool) eligibleVoters;\n    mapping(address => uint) registeredVoters;\n    mapping(bytes32 => uint) votes;\n    bytes32[] candidates;\n    bool open; // if true, anybody can register to vote\n    string title;\n  }\n\n  Election[] public elections;\n  uint constant MAX_LENGTH = 15;\n\n  function createElection(address[] memory voterPool, bytes32[] memory candidates, bool open, string memory title) public {\n    elections.push(Election({candidates: candidates, open: open, title: title}));\n\n    for(uint i = 0; i < voterPool.length; i++) {\n      elections[elections.length - 1].eligibleVoters[voterPool[i]] = true;\n    }\n  }\n\n  function registerToVote(uint i) public {\n    require(i >= 0, \"Election not available\");\n    require(i < elections.length, \"Election not available\");\n    require(isEligibleToVote(i, msg.sender), \"You cannot register to vote\");\n    require(elections[i].registeredVoters[msg.sender] == 0, \"You already registered to vote\");\n    elections[i].registeredVoters[msg.sender] = 1;\n  }\n\n  function vote(uint i, bytes32 candidate) public {\n    require(i >= 0, \"Election not available\");\n    require(i < elections.length, \"Election not available\");\n    require(!voted(i, msg.sender), \"You have already voted\");\n    require(isRegisteredToVote(i, msg.sender), \"You are not registered to vote\");\n    elections[i].registeredVoters[msg.sender] = 2;\n    elections[i].votes[candidate]++;\n  }\n\n  function getElection(uint i) public view returns(bytes32[] memory, bool, string memory) {\n    require(i >= 0, \"Election not available\");\n    require(i < elections.length, \"Election not available\");\n    return (elections[i].candidates, elections[i].open, elections[i].title);\n  }\n\n  function isEligibleToVote(uint i, address voter) public view returns (bool) {\n    return elections[i].open || elections[i].eligibleVoters[voter];\n  }\n\n  function isRegisteredToVote(uint i, address voter) public view returns (bool) {\n    return elections[i].registeredVoters[voter] == 1;\n  }\n\n  function voted(uint i, address voter) public view returns (bool) {\n    return elections[i].registeredVoters[voter] == 2;\n  }\n\n  function getNumberOfVotes(uint i, bytes32 candidate) public view returns (uint) {\n    return elections[i].votes[candidate];\n  }\n\n  function getNumberOfElections() public view returns (uint) {\n    return elections.length;\n  }\n\n}\n",
  "sourcePath": "C:/Users/akotr/Documents/Spring 2021/VotingDapp/contracts/Voting.sol",
  "compiler": {
    "name": "solc",
    "version": "0.5.16+commit.9c3226ce.Emscripten.clang"
  },
  "schemaVersion": "3.3.4",
  "updatedAt": "2021-06-17T23:46:57.062Z",
  "networkType": "ethereum",
  "devdoc": {
    "methods": {}
  },
  "userdoc": {
    "methods": {}
  }
}