{
  "contractName": "Voting",
  "abi": [
    {
      "constant": true,
      "inputs": [
        {
          "internalType": "uint256",
          "name": "",
          "type": "uint256"
        }
      ],
      "name": "elections",
      "outputs": [
        {
          "internalType": "bool",
          "name": "open",
          "type": "bool"
        },
        {
          "internalType": "string",
          "name": "title",
          "type": "string"
        }
      ],
      "payable": false,
      "stateMutability": "view",
      "type": "function"
    },
    {
      "constant": true,
      "inputs": [
        {
          "internalType": "address",
          "name": "",
          "type": "address"
        },
        {
          "internalType": "uint256",
          "name": "",
          "type": "uint256"
        }
      ],
      "name": "postedElections",
      "outputs": [
        {
          "internalType": "uint256",
          "name": "",
          "type": "uint256"
        }
      ],
      "payable": false,
      "stateMutability": "view",
      "type": "function"
    },
    {
      "constant": false,
      "inputs": [
        {
          "internalType": "address[]",
          "name": "voterPool",
          "type": "address[]"
        },
        {
          "internalType": "bytes32[]",
          "name": "candidates",
          "type": "bytes32[]"
        },
        {
          "internalType": "bool",
          "name": "open",
          "type": "bool"
        },
        {
          "internalType": "string",
          "name": "title",
          "type": "string"
        }
      ],
      "name": "createElection",
      "outputs": [],
      "payable": false,
      "stateMutability": "nonpayable",
      "type": "function"
    },
    {
      "constant": false,
      "inputs": [
        {
          "internalType": "uint256",
          "name": "i",
          "type": "uint256"
        },
        {
          "internalType": "bytes32",
          "name": "candidate",
          "type": "bytes32"
        }
      ],
      "name": "vote",
      "outputs": [],
      "payable": false,
      "stateMutability": "nonpayable",
      "type": "function"
    },
    {
      "constant": true,
      "inputs": [
        {
          "internalType": "uint256",
          "name": "i",
          "type": "uint256"
        }
      ],
      "name": "getElection",
      "outputs": [
        {
          "internalType": "bytes32[]",
          "name": "",
          "type": "bytes32[]"
        },
        {
          "internalType": "bool",
          "name": "",
          "type": "bool"
        },
        {
          "internalType": "string",
          "name": "",
          "type": "string"
        }
      ],
      "payable": false,
      "stateMutability": "view",
      "type": "function"
    },
    {
      "constant": true,
      "inputs": [
        {
          "internalType": "uint256",
          "name": "i",
          "type": "uint256"
        },
        {
          "internalType": "address",
          "name": "voter",
          "type": "address"
        }
      ],
      "name": "isEligibleToVote",
      "outputs": [
        {
          "internalType": "bool",
          "name": "",
          "type": "bool"
        }
      ],
      "payable": false,
      "stateMutability": "view",
      "type": "function"
    },
    {
      "constant": true,
      "inputs": [
        {
          "internalType": "uint256",
          "name": "i",
          "type": "uint256"
        },
        {
          "internalType": "address",
          "name": "voter",
          "type": "address"
        }
      ],
      "name": "voted",
      "outputs": [
        {
          "internalType": "bool",
          "name": "",
          "type": "bool"
        }
      ],
      "payable": false,
      "stateMutability": "view",
      "type": "function"
    },
    {
      "constant": true,
      "inputs": [
        {
          "internalType": "uint256",
          "name": "i",
          "type": "uint256"
        },
        {
          "internalType": "bytes32",
          "name": "candidate",
          "type": "bytes32"
        }
      ],
      "name": "getNumberOfVotes",
      "outputs": [
        {
          "internalType": "uint256",
          "name": "",
          "type": "uint256"
        }
      ],
      "payable": false,
      "stateMutability": "view",
      "type": "function"
    },
    {
      "constant": true,
      "inputs": [],
      "name": "getNumberOfElections",
      "outputs": [
        {
          "internalType": "uint256",
          "name": "",
          "type": "uint256"
        }
      ],
      "payable": false,
      "stateMutability": "view",
      "type": "function"
    },
    {
      "constant": true,
      "inputs": [
        {
          "internalType": "address",
          "name": "user",
          "type": "address"
        }
      ],
      "name": "getNumberOfElectionsCreatedByUser",
      "outputs": [
        {
          "internalType": "uint256",
          "name": "",
          "type": "uint256"
        }
      ],
      "payable": false,
      "stateMutability": "view",
      "type": "function"
    }
  ],
  "bytecode": "0x608060405234801561001057600080fd5b50611107806100206000396000f3fe608060405234801561001057600080fd5b506004361061009e5760003560e01c80638137b542116100665780638137b542146102975780639ae17cea146102f95780639d7107771461035f578063cdf68a2014610459578063f999dd2b146104775761009e565b8063024c6cf8146100a35780635277b4ae146100ef5780635e6fef011461015557806368bb8bb6146102075780636c8c943e1461023f575b600080fd5b6100d9600480360360408110156100b957600080fd5b810190808035906020019092919080359060200190929190505050610666565b6040518082815260200191505060405180910390f35b61013b6004803603604081101561010557600080fd5b8101908080359060200190929190803573ffffffffffffffffffffffffffffffffffffffff16906020019092919050505061069f565b604051808215151515815260200191505060405180910390f35b6101816004803603602081101561016b57600080fd5b8101908080359060200190929190505050610708565b604051808315151515815260200180602001828103825283818151815260200191508051906020019080838360005b838110156101cb5780820151818401526020810190506101b0565b50505050905090810190601f1680156101f85780820380516001836020036101000a031916815260200191505b50935050505060405180910390f35b61023d6004803603604081101561021d57600080fd5b8101908080359060200190929190803590602001909291905050506107de565b005b6102816004803603602081101561025557600080fd5b81019080803573ffffffffffffffffffffffffffffffffffffffff169060200190929190505050610a6c565b6040518082815260200191505060405180910390f35b6102e3600480360360408110156102ad57600080fd5b81019080803573ffffffffffffffffffffffffffffffffffffffff16906020019092919080359060200190929190505050610ab8565b6040518082815260200191505060405180910390f35b6103456004803603604081101561030f57600080fd5b8101908080359060200190929190803573ffffffffffffffffffffffffffffffffffffffff169060200190929190505050610ae6565b604051808215151515815260200191505060405180910390f35b61038b6004803603602081101561037557600080fd5b8101908080359060200190929190505050610b8b565b60405180806020018415151515815260200180602001838103835286818151815260200191508051906020019060200280838360005b838110156103dc5780820151818401526020810190506103c1565b50505050905001838103825284818151815260200191508051906020019080838360005b8381101561041b578082015181840152602081019050610400565b50505050905090810190601f1680156104485780820380516001836020036101000a031916815260200191505b509550505050505060405180910390f35b610461610de5565b6040518082815260200191505060405180910390f35b6106646004803603608081101561048d57600080fd5b81019080803590602001906401000000008111156104aa57600080fd5b8201836020820111156104bc57600080fd5b803590602001918460208302840111640100000000831117156104de57600080fd5b919080806020026020016040519081016040528093929190818152602001838360200280828437600081840152601f19601f8201169050808301925050505050505091929192908035906020019064010000000081111561053e57600080fd5b82018360208201111561055057600080fd5b8035906020019184602083028401116401000000008311171561057257600080fd5b919080806020026020016040519081016040528093929190818152602001838360200280828437600081840152601f19601f820116905080830192505050505050509192919290803515159060200190929190803590602001906401000000008111156105de57600080fd5b8201836020820111156105f057600080fd5b8035906020019184600183028401116401000000008311171561061257600080fd5b91908080601f016020809104026020016040519081016040528093929190818152602001838380828437600081840152601f19601f820116905080830192505050505050509192919290505050610df1565b005b600080838154811061067457fe5b9060005260206000209060060201600201600083815260200190815260200160002054905092915050565b60006001600084815481106106b057fe5b906000526020600020906006020160010160008473ffffffffffffffffffffffffffffffffffffffff1673ffffffffffffffffffffffffffffffffffffffff1681526020019081526020016000205414905092915050565b6000818154811061071557fe5b90600052602060002090600602016000915090508060040160009054906101000a900460ff1690806005018054600181600116156101000203166002900480601f0160208091040260200160405190810160405280929190818152602001828054600181600116156101000203166002900480156107d45780601f106107a9576101008083540402835291602001916107d4565b820191906000526020600020905b8154815290600101906020018083116107b757829003601f168201915b5050505050905082565b6000821015610855576040517f08c379a00000000000000000000000000000000000000000000000000000000081526004018080602001828103825260168152602001807f456c656374696f6e206e6f7420617661696c61626c650000000000000000000081525060200191505060405180910390fd5b60008054905082106108cf576040517f08c379a00000000000000000000000000000000000000000000000000000000081526004018080602001828103825260168152602001807f456c656374696f6e206e6f7420617661696c61626c650000000000000000000081525060200191505060405180910390fd5b6108d9823361069f565b1561094c576040517f08c379a00000000000000000000000000000000000000000000000000000000081526004018080602001828103825260168152602001807f596f75206861766520616c726561647920766f7465640000000000000000000081525060200191505060405180910390fd5b6109568233610ae6565b6109c8576040517f08c379a000000000000000000000000000000000000000000000000000000000815260040180806020018281038252601c8152602001807f596f7520617265206e6f7420656c696769626c6520746f20766f74650000000081525060200191505060405180910390fd5b6001600083815481106109d757fe5b906000526020600020906006020160010160003373ffffffffffffffffffffffffffffffffffffffff1673ffffffffffffffffffffffffffffffffffffffff1681526020019081526020016000208190555060008281548110610a3657fe5b90600052602060002090600602016002016000828152602001908152602001600020600081548092919060010191905055505050565b6000600160008373ffffffffffffffffffffffffffffffffffffffff1673ffffffffffffffffffffffffffffffffffffffff168152602001908152602001600020805490509050919050565b60016020528160005260406000208181548110610ad157fe5b90600052602060002001600091509150505481565b6000808381548110610af457fe5b906000526020600020906006020160040160009054906101000a900460ff1680610b83575060008381548110610b2657fe5b906000526020600020906006020160000160008373ffffffffffffffffffffffffffffffffffffffff1673ffffffffffffffffffffffffffffffffffffffff16815260200190815260200160002060009054906101000a900460ff165b905092915050565b6060600060606000841015610c08576040517f08c379a00000000000000000000000000000000000000000000000000000000081526004018080602001828103825260168152602001807f456c656374696f6e206e6f7420617661696c61626c650000000000000000000081525060200191505060405180910390fd5b6000805490508410610c82576040517f08c379a00000000000000000000000000000000000000000000000000000000081526004018080602001828103825260168152602001807f456c656374696f6e206e6f7420617661696c61626c650000000000000000000081525060200191505060405180910390fd5b60008481548110610c8f57fe5b906000526020600020906006020160030160008581548110610cad57fe5b906000526020600020906006020160040160009054906101000a900460ff1660008681548110610cd957fe5b906000526020600020906006020160050182805480602002602001604051908101604052809291908181526020018280548015610d3557602002820191906000526020600020905b815481526020019060010190808311610d21575b50505050509250808054600181600116156101000203166002900480601f016020809104026020016040519081016040528092919081815260200182805460018160011615610100020316600290048015610dd15780601f10610da657610100808354040283529160200191610dd1565b820191906000526020600020905b815481529060010190602001808311610db457829003601f168201915b505050505090509250925092509193909250565b60008080549050905090565b60006040518060600160405280858152602001841515815260200183815250908060018154018082558091505090600182039060005260206000209060060201600090919290919091506000820151816003019080519060200190610e57929190610fbb565b5060208201518160040160006101000a81548160ff0219169083151502179055506040820151816005019080519060200190610e94929190611008565b5050505060008090505b8451811015610f43576001600060016000805490500381548110610ebe57fe5b90600052602060002090600602016000016000878481518110610edd57fe5b602002602001015173ffffffffffffffffffffffffffffffffffffffff1673ffffffffffffffffffffffffffffffffffffffff16815260200190815260200160002060006101000a81548160ff0219169083151502179055508080600101915050610e9e565b50600160003373ffffffffffffffffffffffffffffffffffffffff1673ffffffffffffffffffffffffffffffffffffffff168152602001908152602001600020600160008054905003908060018154018082558091505090600182039060005260206000200160009091929091909150555050505050565b828054828255906000526020600020908101928215610ff7579160200282015b82811115610ff6578251825591602001919060010190610fdb565b5b5090506110049190611088565b5090565b828054600181600116156101000203166002900490600052602060002090601f016020900481019282601f1061104957805160ff1916838001178555611077565b82800160010185558215611077579182015b8281111561107657825182559160200191906001019061105b565b5b50905061108491906110ad565b5090565b6110aa91905b808211156110a657600081600090555060010161108e565b5090565b90565b6110cf91905b808211156110cb5760008160009055506001016110b3565b5090565b9056fea265627a7a72315820bad2abd4813e1036cf214a3b49db998d2fa34ec3c01b7cd99c989df949a6a0f464736f6c63430005100032",
  "source": "// SPDX-License-Identifier: MIT\npragma solidity >=0.4.22 <0.9.0;\n\ncontract Voting {\n\n  struct Election {\n    mapping(address => bool) eligibleVoters;\n    mapping(address => uint) registeredVoters;\n    mapping(bytes32 => uint) votes;\n    bytes32[] candidates;\n    bool open; // if true, anybody can register to vote\n    string title;\n  }\n\n  Election[] public elections;\n  mapping(address => uint[]) public postedElections;\n  uint constant MAX_LENGTH = 15;\n\n  function createElection(address[] memory voterPool, bytes32[] memory candidates, bool open, string memory title) public {\n    elections.push(Election({candidates: candidates, open: open, title: title}));\n\n    for(uint i = 0; i < voterPool.length; i++) {\n      elections[elections.length - 1].eligibleVoters[voterPool[i]] = true;\n    }\n    postedElections[msg.sender].push(elections.length - 1);\n  }\n\n  function vote(uint i, bytes32 candidate) public {\n    require(i >= 0, \"Election not available\");\n    require(i < elections.length, \"Election not available\");\n    require(!voted(i, msg.sender), \"You have already voted\");\n    require(isEligibleToVote(i, msg.sender), \"You are not eligible to vote\");\n    elections[i].registeredVoters[msg.sender] = 1;\n    elections[i].votes[candidate]++;\n  }\n\n  function getElection(uint i) public view returns(bytes32[] memory, bool, string memory) {\n    require(i >= 0, \"Election not available\");\n    require(i < elections.length, \"Election not available\");\n    return (elections[i].candidates, elections[i].open, elections[i].title);\n  }\n\n  function isEligibleToVote(uint i, address voter) public view returns (bool) {\n    return elections[i].open || elections[i].eligibleVoters[voter];\n  }\n\n  function voted(uint i, address voter) public view returns (bool) {\n    return elections[i].registeredVoters[voter] == 1;\n  }\n\n  function getNumberOfVotes(uint i, bytes32 candidate) public view returns (uint) {\n    return elections[i].votes[candidate];\n  }\n\n  function getNumberOfElections() public view returns (uint) {\n    return elections.length;\n  }\n\n  function getNumberOfElectionsCreatedByUser(address user) public view returns(uint) {\n    return postedElections[user].length;\n  }\n\n}\n",
  "sourcePath": "C:/Users/akotr/Documents/Spring 2021/VotingDapp/contracts/Voting.sol",
  "compiler": {
    "name": "solc",
    "version": "0.5.16+commit.9c3226ce.Emscripten.clang"
  },
  "schemaVersion": "3.3.4",
  "updatedAt": "2021-06-30T21:38:09.819Z",
  "networkType": "ethereum",
  "devdoc": {
    "methods": {}
  },
  "userdoc": {
    "methods": {}
  }
}