{
  "contractName": "Voting",
  "abi": [
    {
      "constant": true,
      "inputs": [
        {
          "internalType": "uint256",
          "name": "",
          "type": "uint256"
        }
      ],
      "name": "elections",
      "outputs": [
        {
          "internalType": "bool",
          "name": "open",
          "type": "bool"
        }
      ],
      "payable": false,
      "stateMutability": "view",
      "type": "function"
    },
    {
      "constant": false,
      "inputs": [
        {
          "internalType": "address[]",
          "name": "voterPool",
          "type": "address[]"
        },
        {
          "internalType": "bytes32[]",
          "name": "candidates",
          "type": "bytes32[]"
        },
        {
          "internalType": "bool",
          "name": "open",
          "type": "bool"
        }
      ],
      "name": "createElection",
      "outputs": [],
      "payable": false,
      "stateMutability": "nonpayable",
      "type": "function"
    },
    {
      "constant": false,
      "inputs": [
        {
          "internalType": "uint256",
          "name": "i",
          "type": "uint256"
        }
      ],
      "name": "registerToVote",
      "outputs": [],
      "payable": false,
      "stateMutability": "nonpayable",
      "type": "function"
    },
    {
      "constant": false,
      "inputs": [
        {
          "internalType": "uint256",
          "name": "i",
          "type": "uint256"
        },
        {
          "internalType": "bytes32",
          "name": "candidate",
          "type": "bytes32"
        }
      ],
      "name": "vote",
      "outputs": [],
      "payable": false,
      "stateMutability": "nonpayable",
      "type": "function"
    },
    {
      "constant": true,
      "inputs": [
        {
          "internalType": "uint256",
          "name": "i",
          "type": "uint256"
        }
      ],
      "name": "getElection",
      "outputs": [
        {
          "internalType": "bytes32[]",
          "name": "",
          "type": "bytes32[]"
        },
        {
          "internalType": "bool",
          "name": "",
          "type": "bool"
        }
      ],
      "payable": false,
      "stateMutability": "view",
      "type": "function"
    },
    {
      "constant": true,
      "inputs": [
        {
          "internalType": "uint256",
          "name": "i",
          "type": "uint256"
        },
        {
          "internalType": "address",
          "name": "voter",
          "type": "address"
        }
      ],
      "name": "isEligibleToVote",
      "outputs": [
        {
          "internalType": "bool",
          "name": "",
          "type": "bool"
        }
      ],
      "payable": false,
      "stateMutability": "view",
      "type": "function"
    },
    {
      "constant": true,
      "inputs": [
        {
          "internalType": "uint256",
          "name": "i",
          "type": "uint256"
        },
        {
          "internalType": "address",
          "name": "voter",
          "type": "address"
        }
      ],
      "name": "isRegisteredToVote",
      "outputs": [
        {
          "internalType": "bool",
          "name": "",
          "type": "bool"
        }
      ],
      "payable": false,
      "stateMutability": "view",
      "type": "function"
    },
    {
      "constant": true,
      "inputs": [
        {
          "internalType": "uint256",
          "name": "i",
          "type": "uint256"
        },
        {
          "internalType": "address",
          "name": "voter",
          "type": "address"
        }
      ],
      "name": "voted",
      "outputs": [
        {
          "internalType": "bool",
          "name": "",
          "type": "bool"
        }
      ],
      "payable": false,
      "stateMutability": "view",
      "type": "function"
    },
    {
      "constant": true,
      "inputs": [
        {
          "internalType": "uint256",
          "name": "i",
          "type": "uint256"
        },
        {
          "internalType": "bytes32",
          "name": "candidate",
          "type": "bytes32"
        }
      ],
      "name": "getNumberOfVotes",
      "outputs": [
        {
          "internalType": "uint256",
          "name": "",
          "type": "uint256"
        }
      ],
      "payable": false,
      "stateMutability": "view",
      "type": "function"
    }
  ],
  "bytecode": "0x608060405234801561001057600080fd5b50610f34806100206000396000f3fe608060405234801561001057600080fd5b50600436106100935760003560e01c80635277b4ae116100665780635277b4ae146102d05780635e6fef011461033657806368bb8bb61461037c5780639ae17cea146103b45780639d7107771461041a57610093565b8063024c6cf81461009857806314a25ee9146100e45780631753148a1461011257806341b538ce14610178575b600080fd5b6100ce600480360360408110156100ae57600080fd5b8101908080359060200190929190803590602001909291905050506104a8565b6040518082815260200191505060405180910390f35b610110600480360360208110156100fa57600080fd5b81019080803590602001909291905050506104e1565b005b61015e6004803603604081101561012857600080fd5b8101908080359060200190929190803573ffffffffffffffffffffffffffffffffffffffff169060200190929190505050610782565b604051808215151515815260200191505060405180910390f35b6102ce6004803603606081101561018e57600080fd5b81019080803590602001906401000000008111156101ab57600080fd5b8201836020820111156101bd57600080fd5b803590602001918460208302840111640100000000831117156101df57600080fd5b919080806020026020016040519081016040528093929190818152602001838360200280828437600081840152601f19601f8201169050808301925050505050505091929192908035906020019064010000000081111561023f57600080fd5b82018360208201111561025157600080fd5b8035906020019184602083028401116401000000008311171561027357600080fd5b919080806020026020016040519081016040528093929190818152602001838360200280828437600081840152601f19601f8201169050808301925050505050505091929192908035151590602001909291905050506107eb565b005b61031c600480360360408110156102e657600080fd5b8101908080359060200190929190803573ffffffffffffffffffffffffffffffffffffffff169060200190929190505050610920565b604051808215151515815260200191505060405180910390f35b6103626004803603602081101561034c57600080fd5b8101908080359060200190929190505050610989565b604051808215151515815260200191505060405180910390f35b6103b26004803603604081101561039257600080fd5b8101908080359060200190929190803590602001909291905050506109c1565b005b610400600480360360408110156103ca57600080fd5b8101908080359060200190929190803573ffffffffffffffffffffffffffffffffffffffff169060200190929190505050610c4f565b604051808215151515815260200191505060405180910390f35b6104466004803603602081101561043057600080fd5b8101908080359060200190929190505050610cf4565b604051808060200183151515158152602001828103825284818151815260200191508051906020019060200280838360005b83811015610493578082015181840152602081019050610478565b50505050905001935050505060405180910390f35b60008083815481106104b657fe5b9060005260206000209060050201600201600083815260200190815260200160002054905092915050565b6000811015610558576040517f08c379a00000000000000000000000000000000000000000000000000000000081526004018080602001828103825260168152602001807f456c656374696f6e206e6f7420617661696c61626c650000000000000000000081525060200191505060405180910390fd5b60008054905081106105d2576040517f08c379a00000000000000000000000000000000000000000000000000000000081526004018080602001828103825260168152602001807f456c656374696f6e206e6f7420617661696c61626c650000000000000000000081525060200191505060405180910390fd5b6105dc8133610c4f565b61064e576040517f08c379a000000000000000000000000000000000000000000000000000000000815260040180806020018281038252601b8152602001807f596f752063616e6e6f7420726567697374657220746f20766f7465000000000081525060200191505060405180910390fd5b600080828154811061065c57fe5b906000526020600020906005020160010160003373ffffffffffffffffffffffffffffffffffffffff1673ffffffffffffffffffffffffffffffffffffffff168152602001908152602001600020541461071e576040517f08c379a000000000000000000000000000000000000000000000000000000000815260040180806020018281038252601e8152602001807f596f7520616c7265616479207265676973746572656420746f20766f7465000081525060200191505060405180910390fd5b60016000828154811061072d57fe5b906000526020600020906005020160010160003373ffffffffffffffffffffffffffffffffffffffff1673ffffffffffffffffffffffffffffffffffffffff1681526020019081526020016000208190555050565b600060016000848154811061079357fe5b906000526020600020906005020160010160008473ffffffffffffffffffffffffffffffffffffffff1673ffffffffffffffffffffffffffffffffffffffff1681526020019081526020016000205414905092915050565b6000604051806040016040528084815260200183151581525090806001815401808255809150509060018203906000526020600020906005020160009091929091909150600082015181600301908051906020019061084b929190610e8d565b5060208201518160040160006101000a81548160ff02191690831515021790555050505060008090505b835181101561091a57600160006001600080549050038154811061089557fe5b906000526020600020906005020160000160008684815181106108b457fe5b602002602001015173ffffffffffffffffffffffffffffffffffffffff1673ffffffffffffffffffffffffffffffffffffffff16815260200190815260200160002060006101000a81548160ff0219169083151502179055508080600101915050610875565b50505050565b600060026000848154811061093157fe5b906000526020600020906005020160010160008473ffffffffffffffffffffffffffffffffffffffff1673ffffffffffffffffffffffffffffffffffffffff1681526020019081526020016000205414905092915050565b6000818154811061099657fe5b90600052602060002090600502016000915090508060040160009054906101000a900460ff16905081565b6000821015610a38576040517f08c379a00000000000000000000000000000000000000000000000000000000081526004018080602001828103825260168152602001807f456c656374696f6e206e6f7420617661696c61626c650000000000000000000081525060200191505060405180910390fd5b6000805490508210610ab2576040517f08c379a00000000000000000000000000000000000000000000000000000000081526004018080602001828103825260168152602001807f456c656374696f6e206e6f7420617661696c61626c650000000000000000000081525060200191505060405180910390fd5b610abc8233610920565b15610b2f576040517f08c379a00000000000000000000000000000000000000000000000000000000081526004018080602001828103825260168152602001807f596f75206861766520616c726561647920766f7465640000000000000000000081525060200191505060405180910390fd5b610b398233610782565b610bab576040517f08c379a000000000000000000000000000000000000000000000000000000000815260040180806020018281038252601e8152602001807f596f7520617265206e6f74207265676973746572656420746f20766f7465000081525060200191505060405180910390fd5b600260008381548110610bba57fe5b906000526020600020906005020160010160003373ffffffffffffffffffffffffffffffffffffffff1673ffffffffffffffffffffffffffffffffffffffff1681526020019081526020016000208190555060008281548110610c1957fe5b90600052602060002090600502016002016000828152602001908152602001600020600081548092919060010191905055505050565b6000808381548110610c5d57fe5b906000526020600020906005020160040160009054906101000a900460ff1680610cec575060008381548110610c8f57fe5b906000526020600020906005020160000160008373ffffffffffffffffffffffffffffffffffffffff1673ffffffffffffffffffffffffffffffffffffffff16815260200190815260200160002060009054906101000a900460ff165b905092915050565b6060600080831015610d6e576040517f08c379a00000000000000000000000000000000000000000000000000000000081526004018080602001828103825260168152602001807f456c656374696f6e206e6f7420617661696c61626c650000000000000000000081525060200191505060405180910390fd5b6000805490508310610de8576040517f08c379a00000000000000000000000000000000000000000000000000000000081526004018080602001828103825260168152602001807f456c656374696f6e206e6f7420617661696c61626c650000000000000000000081525060200191505060405180910390fd5b60008381548110610df557fe5b906000526020600020906005020160030160008481548110610e1357fe5b906000526020600020906005020160040160009054906101000a900460ff1681805480602002602001604051908101604052809291908181526020018280548015610e7d57602002820191906000526020600020905b815481526020019060010190808311610e69575b5050505050915091509150915091565b828054828255906000526020600020908101928215610ec9579160200282015b82811115610ec8578251825591602001919060010190610ead565b5b509050610ed69190610eda565b5090565b610efc91905b80821115610ef8576000816000905550600101610ee0565b5090565b9056fea265627a7a72315820984f2702c60ceeaa6f2926135d73c2f9c81cc3b080072182100713a3e200d7b564736f6c63430005100032",
  "source": "// SPDX-License-Identifier: MIT\npragma solidity >=0.4.22 <0.9.0;\n\ncontract Voting {\n\n  struct Election {\n    mapping(address => bool) eligibleVoters;\n    mapping(address => uint) registeredVoters;\n    mapping(bytes32 => uint) votes;\n    bytes32[] candidates;\n    bool open; // if true, anybody can register to vote\n  }\n\n  Election[] public elections;\n  uint constant MAX_LENGTH = 15;\n\n  function createElection(address[] memory voterPool, bytes32[] memory candidates, bool open) public {\n    elections.push(Election({candidates: candidates, open: open}));\n\n    for(uint i = 0; i < voterPool.length; i++) {\n      elections[elections.length - 1].eligibleVoters[voterPool[i]] = true;\n    }\n  }\n\n  function registerToVote(uint i) public {\n    require(i >= 0, \"Election not available\");\n    require(i < elections.length, \"Election not available\");\n    require(isEligibleToVote(i, msg.sender), \"You cannot register to vote\");\n    require(elections[i].registeredVoters[msg.sender] == 0, \"You already registered to vote\");\n    elections[i].registeredVoters[msg.sender] = 1;\n  }\n\n  function vote(uint i, bytes32 candidate) public {\n    require(i >= 0, \"Election not available\");\n    require(i < elections.length, \"Election not available\");\n    require(!voted(i, msg.sender), \"You have already voted\");\n    require(isRegisteredToVote(i, msg.sender), \"You are not registered to vote\");\n    elections[i].registeredVoters[msg.sender] = 2;\n    elections[i].votes[candidate]++;\n  }\n\n  function getElection(uint i) public view returns(bytes32[] memory, bool) {\n    require(i >= 0, \"Election not available\");\n    require(i < elections.length, \"Election not available\");\n    return (elections[i].candidates, elections[i].open);\n  }\n\n  function isEligibleToVote(uint i, address voter) public view returns (bool) {\n    return elections[i].open || elections[i].eligibleVoters[voter];\n  }\n\n  function isRegisteredToVote(uint i, address voter) public view returns (bool) {\n    return elections[i].registeredVoters[voter] == 1;\n  }\n\n  function voted(uint i, address voter) public view returns (bool) {\n    return elections[i].registeredVoters[voter] == 2;\n  }\n\n  function getNumberOfVotes(uint i, bytes32 candidate) public view returns (uint) {\n    return elections[i].votes[candidate];\n  }\n\n}\n",
  "sourcePath": "C:/Users/akotr/Documents/Spring 2021/VotingDapp/contracts/Voting.sol",
  "compiler": {
    "name": "solc",
    "version": "0.5.16+commit.9c3226ce.Emscripten.clang"
  },
  "schemaVersion": "3.3.4",
  "updatedAt": "2021-05-27T16:49:33.385Z",
  "networkType": "ethereum",
  "devdoc": {
    "methods": {}
  },
  "userdoc": {
    "methods": {}
  }
}