{
  "contractName": "Voting",
  "abi": [
    {
      "constant": true,
      "inputs": [
        {
          "internalType": "uint256",
          "name": "",
          "type": "uint256"
        }
      ],
      "name": "elections",
      "outputs": [
        {
          "internalType": "bool",
          "name": "open",
          "type": "bool"
        },
        {
          "internalType": "string",
          "name": "title",
          "type": "string"
        }
      ],
      "payable": false,
      "stateMutability": "view",
      "type": "function"
    },
    {
      "constant": false,
      "inputs": [
        {
          "internalType": "address[]",
          "name": "voterPool",
          "type": "address[]"
        },
        {
          "internalType": "bytes32[]",
          "name": "candidates",
          "type": "bytes32[]"
        },
        {
          "internalType": "bool",
          "name": "open",
          "type": "bool"
        },
        {
          "internalType": "string",
          "name": "title",
          "type": "string"
        }
      ],
      "name": "createElection",
      "outputs": [],
      "payable": false,
      "stateMutability": "nonpayable",
      "type": "function"
    },
    {
      "constant": false,
      "inputs": [
        {
          "internalType": "uint256",
          "name": "i",
          "type": "uint256"
        },
        {
          "internalType": "bytes32",
          "name": "candidate",
          "type": "bytes32"
        }
      ],
      "name": "vote",
      "outputs": [],
      "payable": false,
      "stateMutability": "nonpayable",
      "type": "function"
    },
    {
      "constant": true,
      "inputs": [
        {
          "internalType": "uint256",
          "name": "i",
          "type": "uint256"
        }
      ],
      "name": "getElection",
      "outputs": [
        {
          "internalType": "bytes32[]",
          "name": "",
          "type": "bytes32[]"
        },
        {
          "internalType": "bool",
          "name": "",
          "type": "bool"
        },
        {
          "internalType": "string",
          "name": "",
          "type": "string"
        }
      ],
      "payable": false,
      "stateMutability": "view",
      "type": "function"
    },
    {
      "constant": true,
      "inputs": [
        {
          "internalType": "uint256",
          "name": "i",
          "type": "uint256"
        },
        {
          "internalType": "address",
          "name": "voter",
          "type": "address"
        }
      ],
      "name": "isEligibleToVote",
      "outputs": [
        {
          "internalType": "bool",
          "name": "",
          "type": "bool"
        }
      ],
      "payable": false,
      "stateMutability": "view",
      "type": "function"
    },
    {
      "constant": true,
      "inputs": [
        {
          "internalType": "uint256",
          "name": "i",
          "type": "uint256"
        },
        {
          "internalType": "address",
          "name": "voter",
          "type": "address"
        }
      ],
      "name": "voted",
      "outputs": [
        {
          "internalType": "bool",
          "name": "",
          "type": "bool"
        }
      ],
      "payable": false,
      "stateMutability": "view",
      "type": "function"
    },
    {
      "constant": true,
      "inputs": [
        {
          "internalType": "uint256",
          "name": "i",
          "type": "uint256"
        },
        {
          "internalType": "bytes32",
          "name": "candidate",
          "type": "bytes32"
        }
      ],
      "name": "getNumberOfVotes",
      "outputs": [
        {
          "internalType": "uint256",
          "name": "",
          "type": "uint256"
        }
      ],
      "payable": false,
      "stateMutability": "view",
      "type": "function"
    },
    {
      "constant": true,
      "inputs": [],
      "name": "getNumberOfElections",
      "outputs": [
        {
          "internalType": "uint256",
          "name": "",
          "type": "uint256"
        }
      ],
      "payable": false,
      "stateMutability": "view",
      "type": "function"
    }
  ],
  "bytecode": "0x608060405234801561001057600080fd5b50610f4c806100206000396000f3fe608060405234801561001057600080fd5b50600436106100885760003560e01c80639ae17cea1161005b5780639ae17cea146102295780639d7107771461028f578063cdf68a2014610389578063f999dd2b146103a757610088565b8063024c6cf81461008d5780635277b4ae146100d95780635e6fef011461013f57806368bb8bb6146101f1575b600080fd5b6100c3600480360360408110156100a357600080fd5b810190808035906020019092919080359060200190929190505050610596565b6040518082815260200191505060405180910390f35b610125600480360360408110156100ef57600080fd5b8101908080359060200190929190803573ffffffffffffffffffffffffffffffffffffffff1690602001909291905050506105cf565b604051808215151515815260200191505060405180910390f35b61016b6004803603602081101561015557600080fd5b8101908080359060200190929190505050610638565b604051808315151515815260200180602001828103825283818151815260200191508051906020019080838360005b838110156101b557808201518184015260208101905061019a565b50505050905090810190601f1680156101e25780820380516001836020036101000a031916815260200191505b50935050505060405180910390f35b6102276004803603604081101561020757600080fd5b81019080803590602001909291908035906020019092919050505061070e565b005b6102756004803603604081101561023f57600080fd5b8101908080359060200190929190803573ffffffffffffffffffffffffffffffffffffffff16906020019092919050505061099c565b604051808215151515815260200191505060405180910390f35b6102bb600480360360208110156102a557600080fd5b8101908080359060200190929190505050610a41565b60405180806020018415151515815260200180602001838103835286818151815260200191508051906020019060200280838360005b8381101561030c5780820151818401526020810190506102f1565b50505050905001838103825284818151815260200191508051906020019080838360005b8381101561034b578082015181840152602081019050610330565b50505050905090810190601f1680156103785780820380516001836020036101000a031916815260200191505b509550505050505060405180910390f35b610391610c9b565b6040518082815260200191505060405180910390f35b610594600480360360808110156103bd57600080fd5b81019080803590602001906401000000008111156103da57600080fd5b8201836020820111156103ec57600080fd5b8035906020019184602083028401116401000000008311171561040e57600080fd5b919080806020026020016040519081016040528093929190818152602001838360200280828437600081840152601f19601f8201169050808301925050505050505091929192908035906020019064010000000081111561046e57600080fd5b82018360208201111561048057600080fd5b803590602001918460208302840111640100000000831117156104a257600080fd5b919080806020026020016040519081016040528093929190818152602001838360200280828437600081840152601f19601f8201169050808301925050505050505091929192908035151590602001909291908035906020019064010000000081111561050e57600080fd5b82018360208201111561052057600080fd5b8035906020019184600183028401116401000000008311171561054257600080fd5b91908080601f016020809104026020016040519081016040528093929190818152602001838380828437600081840152601f19601f820116905080830192505050505050509192919290505050610ca7565b005b60008083815481106105a457fe5b9060005260206000209060060201600201600083815260200190815260200160002054905092915050565b60006001600084815481106105e057fe5b906000526020600020906006020160010160008473ffffffffffffffffffffffffffffffffffffffff1673ffffffffffffffffffffffffffffffffffffffff1681526020019081526020016000205414905092915050565b6000818154811061064557fe5b90600052602060002090600602016000915090508060040160009054906101000a900460ff1690806005018054600181600116156101000203166002900480601f0160208091040260200160405190810160405280929190818152602001828054600181600116156101000203166002900480156107045780601f106106d957610100808354040283529160200191610704565b820191906000526020600020905b8154815290600101906020018083116106e757829003601f168201915b5050505050905082565b6000821015610785576040517f08c379a00000000000000000000000000000000000000000000000000000000081526004018080602001828103825260168152602001807f456c656374696f6e206e6f7420617661696c61626c650000000000000000000081525060200191505060405180910390fd5b60008054905082106107ff576040517f08c379a00000000000000000000000000000000000000000000000000000000081526004018080602001828103825260168152602001807f456c656374696f6e206e6f7420617661696c61626c650000000000000000000081525060200191505060405180910390fd5b61080982336105cf565b1561087c576040517f08c379a00000000000000000000000000000000000000000000000000000000081526004018080602001828103825260168152602001807f596f75206861766520616c726561647920766f7465640000000000000000000081525060200191505060405180910390fd5b610886823361099c565b6108f8576040517f08c379a000000000000000000000000000000000000000000000000000000000815260040180806020018281038252601c8152602001807f596f7520617265206e6f7420656c696769626c6520746f20766f74650000000081525060200191505060405180910390fd5b60016000838154811061090757fe5b906000526020600020906006020160010160003373ffffffffffffffffffffffffffffffffffffffff1673ffffffffffffffffffffffffffffffffffffffff168152602001908152602001600020819055506000828154811061096657fe5b90600052602060002090600602016002016000828152602001908152602001600020600081548092919060010191905055505050565b60008083815481106109aa57fe5b906000526020600020906006020160040160009054906101000a900460ff1680610a395750600083815481106109dc57fe5b906000526020600020906006020160000160008373ffffffffffffffffffffffffffffffffffffffff1673ffffffffffffffffffffffffffffffffffffffff16815260200190815260200160002060009054906101000a900460ff165b905092915050565b6060600060606000841015610abe576040517f08c379a00000000000000000000000000000000000000000000000000000000081526004018080602001828103825260168152602001807f456c656374696f6e206e6f7420617661696c61626c650000000000000000000081525060200191505060405180910390fd5b6000805490508410610b38576040517f08c379a00000000000000000000000000000000000000000000000000000000081526004018080602001828103825260168152602001807f456c656374696f6e206e6f7420617661696c61626c650000000000000000000081525060200191505060405180910390fd5b60008481548110610b4557fe5b906000526020600020906006020160030160008581548110610b6357fe5b906000526020600020906006020160040160009054906101000a900460ff1660008681548110610b8f57fe5b906000526020600020906006020160050182805480602002602001604051908101604052809291908181526020018280548015610beb57602002820191906000526020600020905b815481526020019060010190808311610bd7575b50505050509250808054600181600116156101000203166002900480601f016020809104026020016040519081016040528092919081815260200182805460018160011615610100020316600290048015610c875780601f10610c5c57610100808354040283529160200191610c87565b820191906000526020600020905b815481529060010190602001808311610c6a57829003601f168201915b505050505090509250925092509193909250565b60008080549050905090565b60006040518060600160405280858152602001841515815260200183815250908060018154018082558091505090600182039060005260206000209060060201600090919290919091506000820151816003019080519060200190610d0d929190610e00565b5060208201518160040160006101000a81548160ff0219169083151502179055506040820151816005019080519060200190610d4a929190610e4d565b5050505060008090505b8451811015610df9576001600060016000805490500381548110610d7457fe5b90600052602060002090600602016000016000878481518110610d9357fe5b602002602001015173ffffffffffffffffffffffffffffffffffffffff1673ffffffffffffffffffffffffffffffffffffffff16815260200190815260200160002060006101000a81548160ff0219169083151502179055508080600101915050610d54565b5050505050565b828054828255906000526020600020908101928215610e3c579160200282015b82811115610e3b578251825591602001919060010190610e20565b5b509050610e499190610ecd565b5090565b828054600181600116156101000203166002900490600052602060002090601f016020900481019282601f10610e8e57805160ff1916838001178555610ebc565b82800160010185558215610ebc579182015b82811115610ebb578251825591602001919060010190610ea0565b5b509050610ec99190610ef2565b5090565b610eef91905b80821115610eeb576000816000905550600101610ed3565b5090565b90565b610f1491905b80821115610f10576000816000905550600101610ef8565b5090565b9056fea265627a7a723158203621c27d6ba9942a1c10e2c28c23595dea5a881dc1b8965324d7e1158a8fe93b64736f6c63430005100032",
  "source": "// SPDX-License-Identifier: MIT\npragma solidity >=0.4.22 <0.9.0;\n\ncontract Voting {\n\n  struct Election {\n    mapping(address => bool) eligibleVoters;\n    mapping(address => uint) registeredVoters;\n    mapping(bytes32 => uint) votes;\n    bytes32[] candidates;\n    bool open; // if true, anybody can register to vote\n    string title;\n  }\n\n  Election[] public elections;\n  uint constant MAX_LENGTH = 15;\n\n  function createElection(address[] memory voterPool, bytes32[] memory candidates, bool open, string memory title) public {\n    elections.push(Election({candidates: candidates, open: open, title: title}));\n\n    for(uint i = 0; i < voterPool.length; i++) {\n      elections[elections.length - 1].eligibleVoters[voterPool[i]] = true;\n    }\n  }\n\n  function vote(uint i, bytes32 candidate) public {\n    require(i >= 0, \"Election not available\");\n    require(i < elections.length, \"Election not available\");\n    require(!voted(i, msg.sender), \"You have already voted\");\n    require(isEligibleToVote(i, msg.sender), \"You are not eligible to vote\");\n    elections[i].registeredVoters[msg.sender] = 1;\n    elections[i].votes[candidate]++;\n  }\n\n  function getElection(uint i) public view returns(bytes32[] memory, bool, string memory) {\n    require(i >= 0, \"Election not available\");\n    require(i < elections.length, \"Election not available\");\n    return (elections[i].candidates, elections[i].open, elections[i].title);\n  }\n\n  function isEligibleToVote(uint i, address voter) public view returns (bool) {\n    return elections[i].open || elections[i].eligibleVoters[voter];\n  }\n\n  function voted(uint i, address voter) public view returns (bool) {\n    return elections[i].registeredVoters[voter] == 1;\n  }\n\n  function getNumberOfVotes(uint i, bytes32 candidate) public view returns (uint) {\n    return elections[i].votes[candidate];\n  }\n\n  function getNumberOfElections() public view returns (uint) {\n    return elections.length;\n  }\n\n}\n",
  "sourcePath": "C:/Users/akotr/Documents/Spring 2021/VotingDapp/contracts/Voting.sol",
  "compiler": {
    "name": "solc",
    "version": "0.5.16+commit.9c3226ce.Emscripten.clang"
  },
  "schemaVersion": "3.3.4",
  "updatedAt": "2021-06-24T18:24:08.257Z",
  "networkType": "ethereum",
  "devdoc": {
    "methods": {}
  },
  "userdoc": {
    "methods": {}
  }
}