{
  "contractName": "Voting",
  "abi": [
    {
      "constant": true,
      "inputs": [
        {
          "internalType": "uint256",
          "name": "",
          "type": "uint256"
        }
      ],
      "name": "elections",
      "outputs": [
        {
          "internalType": "bool",
          "name": "open",
          "type": "bool"
        }
      ],
      "payable": false,
      "stateMutability": "view",
      "type": "function"
    },
    {
      "constant": false,
      "inputs": [
        {
          "internalType": "address[]",
          "name": "voterPool",
          "type": "address[]"
        },
        {
          "internalType": "bool",
          "name": "open",
          "type": "bool"
        }
      ],
      "name": "createElection",
      "outputs": [],
      "payable": false,
      "stateMutability": "nonpayable",
      "type": "function"
    },
    {
      "constant": false,
      "inputs": [
        {
          "internalType": "uint256",
          "name": "i",
          "type": "uint256"
        }
      ],
      "name": "registerToVote",
      "outputs": [],
      "payable": false,
      "stateMutability": "nonpayable",
      "type": "function"
    },
    {
      "constant": true,
      "inputs": [
        {
          "internalType": "uint256",
          "name": "i",
          "type": "uint256"
        }
      ],
      "name": "getElection",
      "outputs": [
        {
          "internalType": "address[]",
          "name": "",
          "type": "address[]"
        },
        {
          "internalType": "bool",
          "name": "",
          "type": "bool"
        }
      ],
      "payable": false,
      "stateMutability": "view",
      "type": "function"
    },
    {
      "constant": true,
      "inputs": [
        {
          "internalType": "uint256",
          "name": "i",
          "type": "uint256"
        },
        {
          "internalType": "address",
          "name": "voter",
          "type": "address"
        }
      ],
      "name": "eligibleToVote",
      "outputs": [
        {
          "internalType": "bool",
          "name": "",
          "type": "bool"
        }
      ],
      "payable": false,
      "stateMutability": "view",
      "type": "function"
    }
  ],
  "bytecode": "0x608060405234801561001057600080fd5b5061089b806100206000396000f3fe608060405234801561001057600080fd5b50600436106100575760003560e01c806314a25ee91461005c57806320d7a7581461008a5780635a4e58a4146100f05780635e6fef01146101b45780639d710777146101fa575b600080fd5b6100886004803603602081101561007257600080fd5b8101908080359060200190929190505050610288565b005b6100d6600480360360408110156100a057600080fd5b8101908080359060200190929190803573ffffffffffffffffffffffffffffffffffffffff16906020019092919050505061047a565b604051808215151515815260200191505060405180910390f35b6101b26004803603604081101561010657600080fd5b810190808035906020019064010000000081111561012357600080fd5b82018360208201111561013557600080fd5b8035906020019184602083028401116401000000008311171561015757600080fd5b919080806020026020016040519081016040528093929190818152602001838360200280828437600081840152601f19601f82011690508083019250505050505050919291929080351515906020019092919050505061051f565b005b6101e0600480360360208110156101ca57600080fd5b8101908080359060200190929190505050610683565b604051808215151515815260200191505060405180910390f35b6102266004803603602081101561021057600080fd5b81019080803590602001909291905050506106bb565b604051808060200183151515158152602001828103825284818151815260200191508051906020019060200280838360005b83811015610273578082015181840152602081019050610258565b50505050905001935050505060405180910390f35b60008110156102ff576040517f08c379a00000000000000000000000000000000000000000000000000000000081526004018080602001828103825260168152602001807f456c656374696f6e206e6f7420617661696c61626c650000000000000000000081525060200191505060405180910390fd5b6000805490508110610379576040517f08c379a00000000000000000000000000000000000000000000000000000000081526004018080602001828103825260168152602001807f456c656374696f6e206e6f7420617661696c61626c650000000000000000000081525060200191505060405180910390fd5b610383813361047a565b6103f5576040517f08c379a000000000000000000000000000000000000000000000000000000000815260040180806020018281038252601b8152602001807f596f752063616e6e6f7420726567697374657220746f20766f7465000000000081525060200191505060405180910390fd5b6000818154811061040257fe5b90600052602060002090600302016001013390806001815401808255809150509060018203906000526020600020016000909192909190916101000a81548173ffffffffffffffffffffffffffffffffffffffff021916908373ffffffffffffffffffffffffffffffffffffffff1602179055505050565b600080838154811061048857fe5b906000526020600020906003020160020160009054906101000a900460ff16806105175750600083815481106104ba57fe5b906000526020600020906003020160000160008373ffffffffffffffffffffffffffffffffffffffff1673ffffffffffffffffffffffffffffffffffffffff16815260200190815260200160002060009054906101000a900460ff165b905092915050565b60006040518060400160405280600060405190808252806020026020018201604052801561055c5781602001602082028038833980820191505090505b5081526020018315158152509080600181540180825580915050906001820390600052602060002090600302016000909192909190915060008201518160010190805190602001906105af929190610799565b5060208201518160020160006101000a81548160ff02191690831515021790555050505060008090505b825181101561067e5760016000600160008054905003815481106105f957fe5b9060005260206000209060030201600001600085848151811061061857fe5b602002602001015173ffffffffffffffffffffffffffffffffffffffff1673ffffffffffffffffffffffffffffffffffffffff16815260200190815260200160002060006101000a81548160ff02191690831515021790555080806001019150506105d9565b505050565b6000818154811061069057fe5b90600052602060002090600302016000915090508060020160009054906101000a900460ff16905081565b606060008083815481106106cb57fe5b9060005260206000209060030201600101600084815481106106e957fe5b906000526020600020906003020160020160009054906101000a900460ff168180548060200260200160405190810160405280929190818152602001828054801561078957602002820191906000526020600020905b8160009054906101000a900473ffffffffffffffffffffffffffffffffffffffff1673ffffffffffffffffffffffffffffffffffffffff168152602001906001019080831161073f575b5050505050915091509150915091565b828054828255906000526020600020908101928215610812579160200282015b828111156108115782518260006101000a81548173ffffffffffffffffffffffffffffffffffffffff021916908373ffffffffffffffffffffffffffffffffffffffff160217905550916020019190600101906107b9565b5b50905061081f9190610823565b5090565b61086391905b8082111561085f57600081816101000a81549073ffffffffffffffffffffffffffffffffffffffff021916905550600101610829565b5090565b9056fea265627a7a72315820994d224802f9e53aeb3e1ab91735472ae02aa231f1aac78b09fc4a02db6d562864736f6c63430005100032",
  "source": "// SPDX-License-Identifier: MIT\npragma solidity >=0.4.22 <0.9.0;\n\ncontract Voting {\n\n  struct Election {\n    mapping(address => bool) eligibleVoters;\n    address[] voters;\n    bool open; // if true, anybody can register to vote\n  }\n\n  Election[] public elections;\n\n  function createElection(address[] memory voterPool, bool open) public {\n    elections.push(Election({voters: new address[](0), open: open}));\n\n    for(uint i = 0; i < voterPool.length; i++) {\n      elections[elections.length - 1].eligibleVoters[voterPool[i]] = true;\n    }\n  }\n\n  function registerToVote(uint i) public {\n    require(i >= 0, \"Election not available\");\n    require(i < elections.length, \"Election not available\");\n    require(eligibleToVote(i, msg.sender), \"You cannot register to vote\");\n    elections[i].voters.push(msg.sender);\n  }\n\n  function getElection(uint i) public view returns(address[] memory, bool) {\n    return (elections[i].voters, elections[i].open);\n  }\n\n  function eligibleToVote(uint i, address voter) public view returns (bool) {\n    return elections[i].open || elections[i].eligibleVoters[voter];\n  }\n}\n",
  "sourcePath": "C:/Users/akotr/Documents/Spring 2021/VotingDapp/contracts/Voting.sol",
  "compiler": {
    "name": "solc",
    "version": "0.5.16+commit.9c3226ce.Emscripten.clang"
  },
  "schemaVersion": "3.3.4",
  "updatedAt": "2021-05-24T22:09:21.441Z",
  "networkType": "ethereum",
  "devdoc": {
    "methods": {}
  },
  "userdoc": {
    "methods": {}
  }
}